{
  "_format": "hh-sol-artifact-1",
  "contractName": "OracleTest",
  "sourceName": "contracts/test/OracleTest.sol",
  "abi": [
    {
      "inputs": [
        {
          "internalType": "address",
          "name": "pool",
          "type": "address"
        },
        {
          "internalType": "uint32",
          "name": "period",
          "type": "uint32"
        }
      ],
      "name": "consult",
      "outputs": [
        {
          "internalType": "int24",
          "name": "timeWeightedAverageTick",
          "type": "int24"
        }
      ],
      "stateMutability": "view",
      "type": "function"
    },
    {
      "inputs": [
        {
          "internalType": "address",
          "name": "pool",
          "type": "address"
        },
        {
          "internalType": "uint32",
          "name": "period",
          "type": "uint32"
        }
      ],
      "name": "getGasCostOfConsult",
      "outputs": [
        {
          "internalType": "uint256",
          "name": "",
          "type": "uint256"
        }
      ],
      "stateMutability": "view",
      "type": "function"
    },
    {
      "inputs": [
        {
          "internalType": "int24",
          "name": "tick",
          "type": "int24"
        },
        {
          "internalType": "uint128",
          "name": "baseAmount",
          "type": "uint128"
        },
        {
          "internalType": "address",
          "name": "baseToken",
          "type": "address"
        },
        {
          "internalType": "address",
          "name": "quoteToken",
          "type": "address"
        }
      ],
      "name": "getGasCostOfGetQuoteAtTick",
      "outputs": [
        {
          "internalType": "uint256",
          "name": "",
          "type": "uint256"
        }
      ],
      "stateMutability": "view",
      "type": "function"
    },
    {
      "inputs": [
        {
          "internalType": "int24",
          "name": "tick",
          "type": "int24"
        },
        {
          "internalType": "uint128",
          "name": "baseAmount",
          "type": "uint128"
        },
        {
          "internalType": "address",
          "name": "baseToken",
          "type": "address"
        },
        {
          "internalType": "address",
          "name": "quoteToken",
          "type": "address"
        }
      ],
      "name": "getQuoteAtTick",
      "outputs": [
        {
          "internalType": "uint256",
          "name": "quoteAmount",
          "type": "uint256"
        }
      ],
      "stateMutability": "pure",
      "type": "function"
    }
  ],
  "bytecode": "0x608060405234801561001057600080fd5b50610bc1806100206000396000f3fe608060405234801561001057600080fd5b506004361061004c5760003560e01c806343c57a27146100515780636a816ff9146100bf578063824134891461011b578063bbe8f41914610171575b600080fd5b6100ad6004803603608081101561006757600080fd5b50803560020b906fffffffffffffffffffffffffffffffff6020820135169073ffffffffffffffffffffffffffffffffffffffff604082013581169160600135166101b0565b60408051918252519081900360200190f35b6100ad600480360360808110156100d557600080fd5b50803560020b906fffffffffffffffffffffffffffffffff6020820135169073ffffffffffffffffffffffffffffffffffffffff604082013581169160600135166101c7565b61015a6004803603604081101561013157600080fd5b50803573ffffffffffffffffffffffffffffffffffffffff16906020013563ffffffff166101e6565b6040805160029290920b8252519081900360200190f35b6100ad6004803603604081101561018757600080fd5b50803573ffffffffffffffffffffffffffffffffffffffff16906020013563ffffffff166101f9565b60006101be85858585610214565b95945050505050565b6000805a90506101d986868686610214565b505a900395945050505050565b60006101f283836103bd565b9392505050565b6000805a905061020984846103bd565b505a90039392505050565b60008061022086610754565b90506fffffffffffffffffffffffffffffffff73ffffffffffffffffffffffffffffffffffffffff8216116102ee5773ffffffffffffffffffffffffffffffffffffffff808216800290848116908616106102b0576102ab7801000000000000000000000000000000000000000000000000876fffffffffffffffffffffffffffffffff1683610ae7565b6102e6565b6102e681876fffffffffffffffffffffffffffffffff167801000000000000000000000000000000000000000000000000610ae7565b9250506103b4565b600061031a73ffffffffffffffffffffffffffffffffffffffff83168068010000000000000000610ae7565b90508373ffffffffffffffffffffffffffffffffffffffff168573ffffffffffffffffffffffffffffffffffffffff16106103825761037d700100000000000000000000000000000000876fffffffffffffffffffffffffffffffff1683610ae7565b6103b0565b6103b081876fffffffffffffffffffffffffffffffff16700100000000000000000000000000000000610ae7565b9250505b50949350505050565b600063ffffffff821661043157604080517f08c379a000000000000000000000000000000000000000000000000000000000815260206004820152600260248201527f4250000000000000000000000000000000000000000000000000000000000000604482015290519081900360640190fd5b604080516002808252606082018352600092602083019080368337019050509050828160008151811061046057fe5b602002602001019063ffffffff16908163ffffffff168152505060008160018151811061048957fe5b63ffffffff9092166020928302919091018201526040517f883bdbfd0000000000000000000000000000000000000000000000000000000081526004810182815283516024830152835160009373ffffffffffffffffffffffffffffffffffffffff89169363883bdbfd938793909283926044019185820191028083838b5b83811015610520578181015183820152602001610508565b505050509050019250505060006040518083038186803b15801561054357600080fd5b505afa158015610557573d6000803e3d6000fd5b505050506040513d6000823e601f3d9081017fffffffffffffffffffffffffffffffffffffffffffffffffffffffffffffffe0168201604090815281101561059e57600080fd5b81019080805160405193929190846401000000008211156105be57600080fd5b9083019060208201858111156105d357600080fd5b82518660208202830111640100000000821117156105f057600080fd5b82525081516020918201928201910280838360005b8381101561061d578181015183820152602001610605565b505050509050016040526020018051604051939291908464010000000082111561064657600080fd5b90830190602082018581111561065b57600080fd5b825186602082028301116401000000008211171561067857600080fd5b82525081516020918201928201910280838360005b838110156106a557818101518382015260200161068d565b505050509050016040525050505090506000816000815181106106c457fe5b6020026020010151826001815181106106d957fe5b60200260200101510390508463ffffffff168160060b816106f657fe5b05935060008160060b12801561072057508463ffffffff168160060b8161071957fe5b0760060b15155b1561074b577fffffffffffffffffffffffffffffffffffffffffffffffffffffffffffffffff909301925b50505092915050565b60008060008360020b1261076b578260020b610773565b8260020b6000035b9050620d89e88111156107e757604080517f08c379a000000000000000000000000000000000000000000000000000000000815260206004820152600160248201527f5400000000000000000000000000000000000000000000000000000000000000604482015290519081900360640190fd5b6000600182166108085770010000000000000000000000000000000061081a565b6ffffcb933bd6fad37aa2d162d1a5940015b70ffffffffffffffffffffffffffffffffff169050600282161561084e576ffff97272373d413259a46990580e213a0260801c5b600482161561086d576ffff2e50f5f656932ef12357cf3c7fdcc0260801c5b600882161561088c576fffe5caca7e10e4e61c3624eaa0941cd00260801c5b60108216156108ab576fffcb9843d60f6159c9db58835c9266440260801c5b60208216156108ca576fff973b41fa98c081472e6896dfb254c00260801c5b60408216156108e9576fff2ea16466c96a3843ec78b326b528610260801c5b6080821615610908576ffe5dee046a99a2a811c461f1969c30530260801c5b610100821615610928576ffcbe86c7900a88aedcffc83b479aa3a40260801c5b610200821615610948576ff987a7253ac413176f2b074cf7815e540260801c5b610400821615610968576ff3392b0822b70005940c7a398e4b70f30260801c5b610800821615610988576fe7159475a2c29b7443b29c7fa6e889d90260801c5b6110008216156109a8576fd097f3bdfd2022b8845ad8f792aa58250260801c5b6120008216156109c8576fa9f746462d870fdf8a65dc1f90e061e50260801c5b6140008216156109e8576f70d869a156d2a1b890bb3df62baf32f70260801c5b618000821615610a08576f31be135f97d08fd981231505542fcfa60260801c5b62010000821615610a29576f09aa508b5b7a84e1c677de54f3e99bc90260801c5b62020000821615610a49576e5d6af8dedb81196699c329225ee6040260801c5b62040000821615610a68576d2216e584f5fa1ea926041bedfe980260801c5b62080000821615610a85576b048a170391f7dc42444e8fa20260801c5b60008460020b1315610abe57807fffffffffffffffffffffffffffffffffffffffffffffffffffffffffffffffff81610aba57fe5b0490505b640100000000810615610ad2576001610ad5565b60005b60ff16602082901c0192505050919050565b600080807fffffffffffffffffffffffffffffffffffffffffffffffffffffffffffffffff85870986860292508281109083900303905080610b3b5760008411610b3057600080fd5b5082900490506101f2565b808411610b4757600080fd5b6000848688096000868103871696879004966002600389028118808a02820302808a02820302808a02820302808a02820302808a02820302808a0290910302918190038190046001018684119095039490940291909403929092049190911791909102915050939250505056fea164736f6c6343000706000a",
  "linkReferences": {},
  "deployedLinkReferences": {}
}